:1000000002C1000030C100002EC100002CC1000060
:100010002AC1000028C1000026C1000024C1000040
:1000200022C1000020C100001EC100001CC1000050
:100030001AC1000018C1000016C1000014C1000060
:1000400012C100002BC700000EC100000CC100004F
:100050000AC1000008C1000006C100004EC6000031
:1000600002C1000014C60000E9C50000FCC0000089
:10007000FAC00000F8C00000F6C00000F4C00000A4
:10008000E0C60000F0C00000EEC00000ECC00000C0
:10009000EAC00000E8C00000E6C00000E4C00000C4
:1000A000E2C00000E0C000009FC60000DCC000000D
:1000B000DAC00000D8C00000D6C0000068C600004A
:1000C000D2C00000D0C00000CEC00000CCC00000F4
:1000D000CAC00000C8C00000C6C00000C4C0000004
:1000E000C2C0000000002100240027002A002D00CB
:1000F0003000330001010000040107010A01000083
:100100002200250028002B002E00310034000201BF
:100110000000050108010B0100000A0B02090C0D8B
:100120000E080703040100000000000000000000AA
:1001300000000000000000000000000000000000BF
:10014000000000001211100000000000000000007C
:10015000000000000000000000000000000000009F
:1001600020002300260029002C002F00320000016F
:10017000000003010601090105050505070508083A
:100180000808020202020A0A080804040404010121
:100190000101010101010303030303030303040736
:1001A00007070C0C0C0C0C0C0C0C020202020606CD
:1001B0000606060606060B0B0B0B0B0B0B0B0102C0
:1001C0001020200808102040102040800201020169
:1001D0000804020101020408102040808040201021
:1001E000080402018004020180402010080402017A
:1001F00008040201010204081020408001020408E2
:1002000010204080C00711241FBECFEFD1E2DEBF17
:10021000CDBF00E00CBF12E0A0E0B2E0E4E1FDE100
:1002200000E00BBF02C007900D92AE36B107D9F7C0
:1002300023E0AEE6B2E001C01D92A23CB207E1F7B6
:1002400011E0C3E0D1E000E006C021970109802F52
:10025000FE010E946F0CC230D10780E00807A9F7A9
:1002600022D70C94880ECCCEE091BB03E03388F506
:100270004091BC0328E830E0241B310947FD339549
:10028000220F331F220F331F8217930784F04091F0
:10029000BD0328E532E0241B310947FD3395220FC9
:1002A000331F220F331F821793070CF49C01225037
:1002B0003109220F331F4FB7F8948E2F90E0FC01C5
:1002C000EE0FFF1FE80FF91FE25EFC4F3283218320
:1002D0004FBF0895AF92BF92CF92DF92EF92FF92FD
:1002E0000F931F93CF93DF936C017B018B01040F5E
:1002F000151FEB015E01AE18BF08C017D10759F0FA
:100300006991D601ED91FC910190F081E02DC6013B
:100310001995892B79F7C501DF91CF911F910F9125
:10032000FF90EF90DF90CF90BF90AF900895FC01C9
:10033000538D448D252F30E0842F90E0821B930B4A
:10034000541710F0CF96089501970895FC01918DF0
:10035000828D981761F0A28DAE0FBF2FB11D5D96F3
:100360008C91928D9F5F9F73928F90E008958FEF95
:100370009FEF0895FC01918D828D981731F0828D49
:10038000E80FF11D858D90E008958FEF9FEF0895A0
:10039000FC01918D228D892F90E0805C9F4F821B04
:1003A00091098F739927089581E892E0F1DF21E0A8
:1003B000892B09F420E0822F0895FC01A48DA80F59
:1003C000B92FB11DA35ABF4F2C91848D90E0019697
:1003D0008F739927848FA689B7892C93A089B189B7
:1003E0008C91837080648C93938D848D981306C058
:1003F0000288F389E02D80818F7D80830895EF92BC
:10040000FF920F931F93CF93DF93EC0181E0888FCE
:100410009B8D8C8D98131AC0E889F989808185FF9E
:1004200015C09FB7F894EE89FF896083E889F98940
:1004300080818370806480839FBF81E090E0DF9142
:10044000CF911F910F91FF90EF900895F62E0B8D95
:1004500010E00F5F1F4F0F731127E02E8C8D8E1150
:100460000BC00FB607FCFACFE889F989808185FFB8
:10047000F5CFCE01A2DFF2CFEB8DEC0FFD2FF11DFA
:10048000E35AFF4FF0829FB7F8940B8FEA89FB89FC
:1004900080818062D0CFCF93DF93EC01888D882359
:1004A000B1F0AA89BB89E889F9898C9185FD03C0DF
:1004B000808186FD0CC00FB607FCF7CF8C9185FFBD
:1004C000F2CF808185FFEDCFCE0177DFEACFDF91DC
:1004D000CF91089580E090E0892B21F065DF8111B4
:1004E0000E94000080E090E0892B49F080E090E0DD
:1004F000892B29F00E94000081110E94000080E0F9
:1005000090E0892B49F080E090E0892B29F00E944F
:10051000000081110E94000080E090E0892B49F0EA
:1005200080E090E0892B29F00E94000081110C945A
:1005300000000895282F30E0F901E85EFE4F949105
:10054000F901E254FE4F449128583E4FF90124919D
:10055000222309F435C0992311F191509231F8F416
:10056000E92FF0E08827E854FD4F8F4F0C946F0C73
:10057000E902ED02CA02E102E502CF02F002F60250
:10058000FA020003040308030E031203CF0216034A
:100590001C032003809180008F7780938000E22FDE
:1005A000F0E0EE0FFF1FE250FF4FA591B4918FB71F
:1005B000F894EC91611148C040954E234C938FBF45
:1005C0000895809180008F7DE8CF80918000877FA3
:1005D000E4CF84B58F7784BDE2CF84B58F7DFBCF28
:1005E0008091B0008F778093B000D9CF8091B00018
:1005F0008F7DF9CF809190008F7780939000CFCF3F
:10060000809190008F7DF9CF80919000877FF5CF0A
:100610008091A0008F778093A000C1CF8091A0002F
:100620008F7DF9CF8091A000877FF5CF8091200149
:100630008F7780932001B3CF809120018F7DF9CFF8
:1006400080912001877FF5CF4E2BB8CFCF93DF93DA
:1006500090E0FC01E254FE4F249188589E4FFC012B
:1006600084918823D1F090E0880F991FFC01EC5110
:10067000FF4FA591B491FC01E250FF4FC591D49179
:1006800061110EC09FB7F8948C91E22FE0958E23F4
:100690008C932881E223E8839FBFDF91CF91089557
:1006A0008FB7F894EC91E22BEC938FBFF6CF3FB766
:1006B000F8948091770290917802A0917902B0919C
:1006C0007A0226B5A89B05C02F3F19F00196A11DFF
:1006D000B11D3FBFBA2FA92F982F8827BC01CD018C
:1006E000620F711D811D911D42E0660F771F881FEB
:1006F000991F4A95D1F708958F929F92AF92BF921A
:10070000CF92DF92EF92FF924B015C01D0DF6B0141
:100710007C01CDDF6C197D098E099F09683E73400D
:1007200081059105B0F321E0821A9108A108B10872
:1007300088EEC80E83E0D81EE11CF11C81149104E0
:10074000A104B10431F7FF90EF90DF90CF90BF90FC
:10075000AF909F908F900895AF92BF92CF92DF920B
:10076000EF92FF920F931F93CF93DF936B017A0168
:10077000EC01C259DD4F28813CE0389F8001399F50
:10078000100D1124A090AE03B12C27FF1FC0FB0158
:100790001182108288818F5F888388819801280F59
:1007A000311D87FD3A95F6012A153B051CF4888119
:1007B0008C30BCF180819181049680349C4908F48E
:1007C00071C0F6018081918104966EC08881980184
:1007D000280F311D87FD3A952A153B05DCF68881E7
:1007E000A801480F511D87FD5A95FA01EE0FFF1F12
:1007F000E40FF51FE25EFC4F808186FFCBCF88813E
:10080000F801E80FF11D87FDFA95CF01EE0FFF1FEC
:10081000E80FF91FE25EFC4F808160E08F738ADE93
:10082000B9CF808191812881A801420F511D27FDF8
:100830005A959A01FA01EE0FFF1FE20FF31FE25ED5
:10084000FC4F21813281820F931FF70191838083B6
:1008500088819801280F311D87FD3A95F901EE0F27
:10086000FF1FE20FF31FE25EFC4F808186FF21C075
:100870008881080F111D87FD1A95F801EE0FFF1FE3
:10088000E00FF11FE25EFC4F808161E08F73DF912A
:10089000CF911F910F91FF90EF90DF90CF90BF907D
:1008A000AF9048CE80E49CE9F701918380838FEF7D
:1008B0008883DF91CF911F910F91FF90EF90DF9090
:1008C000CF90BF90AF90089542E050E068E172E0B1
:1008D00081E892E0FFCCCF93DF93FC0101900020F0
:1008E000E9F73197AF01481B590BBC0181E892E051
:1008F000F1DCEC01E9DF8C0F9D1FDF91CF910895B2
:10090000CF93DF93FC01448155816081718181E83F
:1009100092E0E0DCEC01D8DF8C0F9D1FDF91CF91DE
:100920000895CF92DF92EF92FF920F931F93CF9390
:10093000DF93EC0160E08881FDDD83E090E00197CA
:10094000F1F761E08881F6DD83E290E00197F1F74D
:1009500060E08881EFDD8A819B819927FC01E25468
:10096000FE4F6491FC01E858FE4FE491F0E0EE0F79
:10097000FF1FE25AFE4F8591949100E412E42FE0AC
:1009800030E0462FB8D2611571058105910529F037
:100990006F5F7F4F8F4F9F4F9F70F4D520E030E007
:1009A00040E05FE350D62AE23EE74CE05DE34BD601
:1009B0006B017C0120E030E0A901E0D5882349F0FB
:1009C00020E030E048EC53E4C701B60178D71816B0
:1009D00034F4C12CD12C80E8E82E8FEBF82EC7011F
:1009E000B601DF91CF911F910F91FF90EF90DF90B3
:1009F000CF9008950F931F93CF93DF93EC018881DD
:100A00009981009759F02A813B812617370730F0EA
:100A100081E0DF91CF911F910F9108958B016F5F5E
:100A20007F4F0E949C0D009759F0998388831B8308
:100A30000A832C813D81232B59F7FC011082E8CFDA
:100A400080E0E7CFCF93DF93EC0188819981009715
:100A500009F0E9D7198218821D821C821B821A8232
:100A6000DF91CF910895CF92DF92EF92FF920F9393
:100A70001F93CF93DF9300D000D01F921F92CDB76A
:100A8000DEB77C01CB014AE09E012F5F3F4F690139
:100A9000B90141D5F60101900020E9F73197EC1931
:100AA000FD09D1F0D70114960D911C910E0F1F1F57
:100AB000B801C7019FDF8823F9F0F7012081318158
:100AC00084819581B601820F931F0E94810ED70108
:100AD00015961C930E931497C70128960FB6F89499
:100AE000DEBF0FBECDBFDF91CF911F910F91FF9061
:100AF000EF90DF90CF900895C701A4DFEDCFEF9284
:100B0000FF920F931F93CF93DF93EC01FB01E080E3
:100B1000F180E114F10409F1048115810115110539
:100B2000A1F08C819D81080F191FB801CE0162DFF1
:100B3000882399F0288139818C819D81B701820FAA
:100B4000931F0E94810E1D830C83CE01DF91CF91F4
:100B50001F910F91FF90EF900895CE0173DFF5CFB5
:100B6000EF92FF920F931F93CF93DF93EC017B01E2
:100B7000198218821B821A821D821C82FB0101903D
:100B80000020E9F731978F01061B170BB80132DF00
:100B9000811108C0CE01DF91CF911F910F91FF907D
:100BA000EF9050CF1D830C83B70188819981DF912D
:100BB000CF911F910F91FF90EF900C94810EFC014B
:100BC00080819181009709F02EC70895EF92FF92DE
:100BD0000F931F93CF93DF93EC01198218821B822E
:100BE0001A821D821C828617970709F1FB0100817A
:100BF000118101151105D9F0E480F580B701FADE05
:100C0000811108C0CE01DF91CF911F910F91FF900C
:100C1000EF9018CFFD82EC82B80188819981DF9135
:100C2000CF911F910F91FF90EF900C94810EDF9167
:100C3000CF911F910F91FF90EF9008951F920F9207
:100C40000FB60F9211240BB60F922F933F934F9331
:100C50005F936F937F938F939F93AF93BF93EF9324
:100C6000FF9381E892E0A9DBFF91EF91BF91AF91F3
:100C70009F918F917F916F915F914F913F912F91B4
:100C80000F900BBE0F900FBE0F901F9018951F92E4
:100C90000F920FB60F9211240BB60F922F938F93D2
:100CA0009F93EF93FF93E0919102F09192028081E4
:100CB000E0919702F091980282FD1DC09081809191
:100CC0009A028F5F8F7320919B02821741F0E0910F
:100CD0009A02F0E0EF57FD4F958F80939A02FF91B3
:100CE000EF919F918F912F910F900BBE0F900FBEA0
:100CF0000F901F9018958081F2CF1F920F920FB620
:100D00000F9211242F933F938F939F93AF93BF9391
:100D10008091730290917402A0917502B091760255
:100D20003091720223E0230F2D3758F50196A11D53
:100D3000B11D209372028093730290937402A0936A
:100D40007502B09376028091770290917802A0911B
:100D50007902B0917A020196A11DB11D80937702AC
:100D600090937802A0937902B0937A02BF91AF91E9
:100D70009F918F913F912F910F900FBE0F901F90D9
:100D8000189526E8230F0296A11DB11DD2CF1F9200
:100D90000F920FB60F9211240BB60F922F933F9321
:100DA0004F935F936F937F938F939F93AF93BF9373
:100DB000EF93FF9348E251E064E271E090E080E05D
:100DC000CBDCFF91EF91BF91AF919F918F917F917C
:100DD0006F915F914F913F912F910F900BBE0F90AC
:100DE0000FBE0F901F9018951F920F920FB60F9283
:100DF00011240BB60F922F933F934F935F936F93F2
:100E00007F938F939F93AF93BF93EF93FF9348EAA2
:100E100050E064EA70E083E090E09EDCFF91EF91A7
:100E2000BF91AF919F918F917F916F915F914F9102
:100E30003F912F910F900BBE0F900FBE0F901F9000
:100E400018951F920F920FB60F9211240BB60F92A6
:100E50002F933F934F935F936F937F938F939F93C2
:100E6000AF93BF93EF93FF9348E950E064E970E0DC
:100E700082E090E071DCFF91EF91BF91AF919F9183
:100E80008F917F916F915F914F913F912F910F9033
:100E90000BBE0F900FBE0F901F9018951F920F92D0
:100EA0000FB60F9211240BB60F922F933F934F93CF
:100EB0005F936F937F938F939F93AF93BF93EF93C2
:100EC000FF9348E850E064E870E081E090E044DCA3
:100ED000FF91EF91BF91AF919F918F917F916F9112
:100EE0005F914F913F912F910F900BBE0F900FBECE
:100EF0000F901F901895CF92DF92EF92FF920F9371
:100F00001F93E82FF92F05C001501109210931095C
:100F100061F1908196239417B9F305C0015011092E
:100F20002109310911F1908196239413F7CFC12C37
:100F3000D12CE12CF12C0AC08FEFC81AD80AE80A8C
:100F4000F80A0C151D052E053F0579F080818623D2
:100F5000841791F36C2D7D2D8E2D9F2D1F910F9158
:100F6000FF90EF90DF90CF90089560E070E080E018
:100F700090E01F910F91FF90EF90DF90CF90089538
:100F8000109284021092830288EE93E0A0E0B0E019
:100F90008093850290938602A0938702B093880283
:100FA0008AE092E0909382028093810285EC90E047
:100FB00090938E0280938D0284EC90E09093900247
:100FC00080938F0280EC90E0909392028093910244
:100FD00081EC90E0909394028093930282EC90E0F5
:100FE000909396028093950286EC90E090939802FD
:100FF0008093970210929A0210929B0210929C0288
:1010000010929D028091AE03803308F048C091E0B9
:10101000980F9093AE038093BB0390E0FC01EE0F1A
:10102000FF1FE80FF91FE25EFC4F88EB9BE0928305
:10103000818385E490E09093B8038093B70384E4C0
:1010400090E09093BA038093B90361E085E4FEDAFF
:1010500060E084E4FBDA83E490E09093B40380934F
:10106000B30382E490E09093B6038093B50361E00C
:1010700083E4ECDA60E082E4E9DA81E490E09093E2
:10108000B0038093AF0380E490E09093B203809329
:10109000B10361E081E4DADA60E080E4D7CA8FEF7F
:1010A0008093BB03C6CFCF93DF93CDB7DEB76297F4
:1010B0000FB6F894DEBF0FBECDBF789484B58260C2
:1010C00084BD84B5816084BD85B5826085BD85B5EC
:1010D000816085BD80916E00816080936E0010926A
:1010E00081008091810082608093810080918100E5
:1010F0008160809381008091800081608093800076
:101100008091B10084608093B1008091B0008160D3
:101110008093B000809191008260809391008091D3
:101120009100816080939100809190008160809314
:1011300090008091A10082608093A1008091A10025
:1011400081608093A1008091A00081608093A000C5
:101150008091210182608093210180912101816031
:1011600080932101809120018160809320018091F2
:101170007A00846080937A0080917A008260809304
:101180007A0080917A00816080937A0080917A0061
:10119000806880937A001092C100E0919102F091F2
:1011A000920282E08083E0918D02F0918E021082A3
:1011B000E0918F02F09190028FEC8083109299025F
:1011C000E0919502F091960286E08083E09193028F
:1011D000F0919402808180618083E0919302F0918C
:1011E0009402808188608083E0919302F091940260
:1011F000808180688083E0919302F09194028081E5
:101200008F7D80838091BB03803308F050C061E004
:1012100089E01CDA8091BB03282F30E0F901EE0F42
:10122000FF1FE20FF31FE25EFC4F9081907C9960FC
:1012300090831092BC031092BD032CE0622F43D325
:10124000829FB001112430E020E0AB01420F531F18
:10125000FA01EE0FFF1FE40FF51FE25EFC4F9081D5
:1012600096FD17C02F5F3F4F2C30310571F781304D
:1012700009F01CC11092800082E0809381001092DE
:10128000850010928400B19A80916F0082608093F3
:101290006F00E091BB038E2F90E0FC01EE0FFF1F6B
:1012A000E80FF91FE25EFC4F80818064808308E8CC
:1012B00010E038E5E32E32E0F32E44EB842E912C3F
:1012C000A12CB12C68EE73E080E090E015DA87EB9A
:1012D00093E027DBC3D27093800260937F0283EB9D
:1012E00093E01FDBBBD270937E0260937D028FEA96
:1012F00093E017DBB3D270937C0260937B026BE1C7
:1013000072E0CE0101962CDCC0907F02D09080026A
:101310006FE172E0CE010D9623DCBE01635F7F4F6B
:10132000CE01079653DCB601CE0107969CDBBE01C9
:101330006F5F7F4FE4DBE4DACE01079640DCCE013D
:101340000D963DDCCE0101963ADC6BE172E0CE01F8
:10135000019606DCC0907D02D0907E0263E272E0CE
:10136000CE010D96FDDBBE01635F7F4FCE01079678
:101370002DDCB601CE01079676DBBE016F5F7F4F95
:10138000BEDBBEDACE0107961ADCCE010D9617DC65
:10139000CE01019614DC6BE172E0CE010196E0DB38
:1013A000C0907B02D0907C0267E272E0CE010D9685
:1013B000D7DBBE01635F7F4FCE01079607DCB60126
:1013C000CE01079650DBBE016F5F7F4F98DB98DA46
:1013D000CE010796F4DBCE010D96F1DBCE0101962E
:1013E000EEDB80917F02909180020397089708F0CE
:1013F0008CC08BE292E06FDA8091BC032801481A1E
:10140000510887FD5394440C551C440C551C052C65
:10141000000C660877088091BD039701281B3109ED
:1014200087FD3395220F331F220F331F032E000C2D
:10143000440B550B2419350946095709AAE5B0E0B4
:10144000D2D1A5019401B3D1DA01C901840D951D52
:10145000A61DB71D0E94340160ED77E080E090E0AA
:101460004BD98091BC039801281B310987FD339526
:10147000C901880F991F880F991F0E94340186E3C4
:1014800092E029DA80917F02909180020B97D4F547
:1014900087EB93E046DAE2D17093800260937F029B
:1014A00068EC70E080E090E027D9ECCF823061F406
:1014B00010929000809391001092950010929400E9
:1014C00088BB80937100E5CE833069F41092A00050
:1014D00082E08093A1001092A5001092A40089BB25
:1014E00080937200D6CE8111D4CE1092200182E07A
:1014F0008093210110922501109224018ABB8093D0
:101500007300C7CE82E492E0E6D986E592E0E3D9A3
:101510000E946A02D7CEBB274A3031F4992322F4C5
:10152000BDE2909581959F4F01C0BB27FB015527D8
:10153000AA27880F991FAA1FA41710F0A41B839530
:101540005051B9F7A05DAA3308F0A95DA1930097A7
:1015500079F7B111B1931192CB0100C0DC01FC010C
:10156000672F71917723E1F7329704C07C916D93D7
:1015700070836291AE17BF07C8F3089540D008F496
:1015800081E00895E89409C097FB3EF4909580951A
:10159000709561957F4F8F4F9F4F9923A9F0F92F39
:1015A00096E9BB279395F695879577956795B795B7
:1015B000F111F8CFFAF4BB0F11F460FF1BC06F5F9D
:1015C0007F4F8F4F9F4F16C0882311F096E911C0AF
:1015D000772321F09EE8872F762F05C0662371F0D0
:1015E00096E8862F70E060E02AF09A95660F771FE4
:1015F000881FDAF7880F9695879597F90895990FC0
:101600000008550FAA0BE0E8FEEF16161706E807CC
:10161000F907C0F012161306E407F50798F0621BED
:10162000730B840B950B39F40A2661F0232B242BC2
:10163000252B21F408950A2609F4A140A6958FEFE1
:10164000811D811D08950BD078C069D028F06ED01F
:1016500018F0952309F05AC05FC01124A2C07ED0B3
:10166000A0F3959FD1F3950F50E0551F629FF001B5
:10167000729FBB27F00DB11D639FAA27F00DB11D0E
:10168000AA1F649F6627B00DA11D661F829F222797
:10169000B00DA11D621F739FB00DA11D621F839F1E
:1016A000A00D611D221F749F3327A00D611D231FF4
:1016B000849F600D211D822F762F6A2F11249F5742
:1016C00050408AF0E1F088234AF0EE0FFF1FBB1F65
:1016D000661F771F881F91505040A9F79E3F510504
:1016E00070F014C05EC05F3FECF3983EDCF386956B
:1016F00077956795B795F795E7959F5FC1F7FE2BAF
:10170000880F911D9695879597F9089597F99F678A
:1017100080E870E060E008959FEF80EC0895002479
:101720000A941616170618060906089500240A9446
:1017300012161306140605060895092E0394000CCC
:1017400011F4882352F0BB0F40F4BF2B11F460FF5B
:1017500004C06F5F7F4F8F4F9F4F089557FD905884
:10176000440F551F59F05F3F71F04795880F97FB65
:10177000991F61F09F3F79F087950895121613061F
:101780001406551FF2CF4695F1DF08C0161617064E
:101790001806991FF1CF8695710561050894089583
:1017A000E894BB2766277727CB0197F90895052E84
:1017B00097FB16F400940FD057FD05D01ED007FC00
:1017C00002D046F408C050954095309521953F4F82
:1017D0004F4F5F4F089590958095709561957F4F1D
:1017E0008F4F9F4F08952BD0A59F900DB49F900DC4
:1017F000A49F800D911D11240895A1E21A2EAA1B09
:10180000BB1BFD010DC0AA1FBB1FEE1FFF1FA217B0
:10181000B307E407F50720F0A21BB30BE40BF50BAD
:10182000661F771F881F991F1A9469F76095709536
:10183000809590959B01AC01BD01CF010895A29FB9
:10184000B001B39FC001A39F700D811D1124911D94
:10185000B29F700D811D1124911D089504D06894CC
:10186000B1119FCF089582DF88F09F5790F0B92F74
:101870009927B751A0F0D1F0660F771F881F991FE5
:101880001AF0BA95C9F712C0B13081F089DFB1E022
:10189000089586CF672F782F8827B85F39F0B93F32
:1018A000CCF3869577956795B395D9F73EF49095E7
:1018B0008095709561957F4F8F4F9F4F08959FDE64
:1018C00008F48FEF0895991B79E004C0991F9617CB
:1018D00008F0961B881F7A95C9F780950895EE0F3A
:1018E000FF1F881F8BBF0790F691E02D19940F936F
:1018F0001F93CF93DF938230910510F482E090E044
:10190000E091C003F091C10330E020E0B0E0A0E03E
:10191000309799F42115310509F44AC0281B390B79
:1019200024303105D8F58A819B816115710589F1D3
:10193000FB0193838283FE0111C0408151810281AA
:10194000138148175907E0F04817590799F4109781
:1019500061F012960C93129713961C933296CF0156
:10196000DF91CF911F910F9108950093C0031093C1
:10197000C103F4CF2115310551F04217530738F058
:10198000A901DB019A01BD01DF01F801C1CFEF011F
:10199000F9CF9093C1038093C003CDCFFE01E20F36
:1019A000F31F819391932250310939832883D7CF34
:1019B0002091BE033091BF03232B41F420910202FA
:1019C000309103023093BF032093BE0320910002A5
:1019D000309101022115310541F42DB73EB74091F8
:1019E000040250910502241B350BE091BE03F091D7
:1019F000BF03E217F307A0F42E1B3F0B281739078C
:101A000078F0AC014E5F5F4F2417350748F04E0F5A
:101A10005F1F5093BF034093BE03819391939FCF69
:101A2000F0E0E0E09CCFCF93DF930097E9F0FC017A
:101A3000329713821282A091C003B091C103ED01CD
:101A400030E020E01097A1F420813181820F931FB4
:101A50002091BE033091BF032817390709F061C0F8
:101A6000F093BF03E093BE03DF91CF910895EA01A5
:101A7000CE17DF07E8F54A815B819E0141155105CC
:101A8000B1F7E901FB83EA8349915991C40FD51F4E
:101A9000EC17FD0761F4808191810296840F951FF8
:101AA000E90199838883828193819B838A83F0E013
:101AB000E0E012968D919C9113970097B9F52D91C6
:101AC0003C911197CD010296820F931F2091BE0386
:101AD0003091BF032817390739F6309751F5109226
:101AE000C1031092C003B093BF03A093BE03BCCF49
:101AF000D383C28340815181840F951FC817D907B2
:101B000061F44E5F5F4F88819981480F591F51835F
:101B100040838A819B81938382832115310509F05B
:101B2000B0CFF093C103E093C0039ECFFD01DC0171
:101B3000C0CF13821282D7CF4F925F926F927F9263
:101B40008F929F92AF92BF92CF92DF92EF92FF92CD
:101B50000F931F93CF93DF938C01009791F4CB01E8
:101B6000DF91CF911F910F91FF90EF90DF90CF9079
:101B7000BF90AF909F908F907F906F905F904F90AD
:101B8000B6CEFC01E60FF71F9C0122503109E21787
:101B9000F30708F4AAC0D901CD91DC911197C617BB
:101BA000D70718F1C530D10570F0CE01049786171C
:101BB000970748F0C61BD70B2297C193D1936D931B
:101BC0007C93CF0130DFC801DF91CF911F910F913E
:101BD000FF90EF90DF90CF90BF90AF909F908F904D
:101BE0007F906F905F904F9008955B01AC1ABD0A93
:101BF0004C018C0E9D1EA091C003B091C103512CCD
:101C0000412CF12CE12C109731F58091BE0390917D
:101C1000BF038815990509F05CC04616570608F001
:101C200058C08091000290910102009741F48DB755
:101C30009EB74091040250910502841B950BE81752
:101C4000F90708F052C0F093BF03E093BE03F90117
:101C500071836083B8CF8D919C91119712966C908F
:101C6000129713967C901397A815B90559F56C0136
:101C700042E0C40ED11CCA14DB0420F1AC014A19A5
:101C80005B09DA011296159780F0628273825183A4
:101C90004083D9016D937C93E114F10471F0D70175
:101CA0001396FC93EE9312978ECF22968C0F9D1F66
:101CB000F90191838083F301EFCFF093C103E093A7
:101CC000C00381CF4816590608F42C017D01D301C9
:101CD0009ACFCB010CDE7C01009739F0AE01B80140
:101CE00007D0C801A0DE87016ECF10E000E06BCF07
:101CF000FB01DC0102C001900D9241505040D8F729
:101D00000895FB01DC0101900D920020E1F7089598
:041D1000F894FFCF75
:101D14000000C203800000000000FF016A01970177
:101D24004B02C801A601BA010D0A0020436D00410F
:101D34003A2000423A2000433A200050524553537F
:101D440045442E2E2E0052454C45415345442E2EDB
:101D54002E004E45585420506C656173652E2E2E0E
:101D64005E5E2E2E2E002D2D2D2D2D2D2D2D2D2D67
:0E1D74002D2D2D2D2D2D2D2D2D2D2D2D2D0018
:00000001FF
